:100000001FC039C038C037C031C135C034C033C05B
:1000100032C031C030C02FC02EC02DC02CC02BC06C
:100020002AC029C028C027C07DC09CC1C0C1C7C18B
:10003000DBC1EAC1F9C102C212C225C27EC290C2AE
:1000400011241FBECFE5D1E0DEBFCDBF10E0A0E69A
:10005000B0E0E8ECF7E002C005900D92AA36B107D7
:10006000D9F720E0AAE6B0E001C01D92AE38B20791
:10007000E1F745D1A7C3C4CFCF93DF93C4E0D0E06D
:100080003BD3BE01C8D201962091840030918500F7
:1000900082179307A9F32091860030918700821779
:1000A000930771F32091880030918900821793079C
:1000B00039F320918A0030918B008217930701F366
:1000C00020916A0030916B00A9014F5F5F4F509300
:1000D0006B0040936A00220F331FF901EC57FF4F6A
:1000E000918380838230910511F4C29A06C08330D7
:1000F00091057CF4019751F4C09A1092730010920C
:1001000072001DBC1CBCDF91CF9108958FEF88BB9E
:10011000F4CF8330910511F4C49AEFCF0497B1F76F
:10012000C69AEBCF1F920F920FB60F9211242F9306
:100130003F934F935F936F937F938F939F93AF936F
:10014000BF93EF93FF9381E090E090936F008093D3
:100150006E001BBEE0B3E870F0E0F0937500E09332
:10016000740060B3607170E0709377006093760004
:1001700040B3407250E0509379004093780020B330
:10018000207430E0309383002093820080916200DD
:1001900090916300079709F058C080916C0090918E
:1001A0006D00DC011196B0936D00A0936C00A091DE
:1001B0007A00B0917B00EA17FB0781F0880F991F46
:1001C000FC01EC57FF4F808191810397F1F581E0AD
:1001D00090E0909371008093700037C0E0917E00B2
:1001E000F0917F006E177F0751F0880F991FFC0177
:1001F000EC57FF4F80819181049739F5E8CF6091EA
:100200008000709181004617570751F0880F991FA1
:10021000FC01EC57FF4F808191810297B1F4D7CF59
:1002200040918C0050918D002417350751F0880FB4
:10023000991FFC01EC57FF4F80819181019729F4B0
:10024000C6CF1092710010927000FF91EF91BF9194
:10025000AF919F918F917F916F915F914F913F915E
:100260002F910F900FBE0F901F9018951F920F9215
:100270000FB60F9211242F933F935F936F937F9349
:100280008F939F9320917200309173002F5F3F4FA7
:10029000309373002093720080917C0090917D00D8
:1002A000019690937D0080937C00809164009091F2
:1002B00065006BEF7FEF9ED1CC962817390729F4A4
:1002C00018BA109273001092720080917C00909185
:1002D0007D000F9731F480E18BBF10927D0010926A
:1002E0007C001DBC1CBC9F918F917F916F915F9191
:1002F0003F912F910F900FBE0F901F90189581E0A6
:1003000090E09093630080936200C0E0D0E083E0CF
:10031000C82ED12CAA24A394B12C02E010E027E02F
:10032000E22EF12C36E0232E312C45E0442E512CC8
:1003300054E0652E712C88248A94912C2196C43621
:10034000D10511F4C0E0D0E0CE01DAD1E091620035
:10035000F09163003197EB30F10508F026C1EB5EB8
:10036000FF4F09948AEA87BB789480E18BBF88E7C6
:1003700085B980E489BF1DBC1CBC9BBC8ABC8EB502
:1003800085608EBDB0926500A092640010927100ED
:100390001092700010926F0010926E0010926D001B
:1003A00010926C0010926B0010926A00C1C0809194
:1003B0006E0090916F00892B09F4BAC0F2C05CDE28
:1003C00010926F0010926E00809164009091650011
:1003D000019729F4F0926100E0926000E6C070920B
:1003E000610060926000E1C088B3857509F0DDC0EE
:1003F00043DE80916400909165000297D1F05092A5
:10040000610040926000D1C088B3857509F0CDC00D
:1004100033DE8091640090916500039751F0309233
:10042000610020926000C1C088B3857509F0BDC02D
:1004300023DEF0926100E09260000CC080916E00BB
:1004400090916F00892B31F288E090E090936100E9
:100450008093600010926F0010926E00A6C0809191
:10046000700090917100019759F48AE090E09093A8
:10047000610080936000109271001092700095C02E
:1004800089E090E068C0B0926500A092640010928C
:100490006D0010926C0010926B0010926A00109226
:1004A00085001092840010928700109286001092AE
:1004B00089001092880010928B0010928A0010928E
:1004C0006F0010926E009FEF98BB2FE784E89EE1CB
:1004D000215080409040E1F700C0000018BA2FE79B
:1004E00084E89EE1215080409040E1F700C0000088
:1004F0002FEF28BB8FE794E82EE1815090402040F9
:10050000E1F700C0000018BA8FE794E82EE18150AF
:1005100090402040E1F700C000008FEF88BB9FE7CC
:1005200024E88EE1915020408040E1F700C00000B7
:10053000109361000093600038C020916C003091EE
:100540006D0080916A0090916B002817390709F0BF
:1005500041CF8BE090E0909361008093600025C0D4
:10056000809164009091650001969093650080935E
:10057000640010926D0010926C0010926B0010924B
:100580006A001092850010928400109287001092E9
:100590008600109289001092880010928B001092B1
:1005A0008A00D0926100C0926000809160009091BA
:1005B0006100909363008093620080B3887090E044
:1005C00090937B0080937A0080B3807190E0909349
:1005D0007F0080937E0080B3807290E090938100D2
:1005E0008093800080B3807490E090938D0080931E
:1005F0008C00A4CE0024552704C0080E591F880F74
:10060000991F009729F076956795B8F37105B9F7AA
:10061000802D952F089597FB072E16F4009406D091
:1006200077FD08D00BD007FC05D03EF4909581955E
:100630009F4F0895709561957F4F0895AA1BBB1B2E
:1006400051E107C0AA1FBB1FA617B70710F0A61BD2
:10065000B70B881F991F5A95A9F780959095BC01F3
:10066000CD0108958F929F92AF92BF92CF92DF9269
:10067000EF92FF92CF93DF93EC01688179818A81B9
:100680009B81611571058105910521F464E279ED85
:100690008BE597E02DE133EF41E050E055D0490183
:1006A0005A0127EA31E440E050E035D06B017C018B
:1006B0002CEE34EF4FEF5FEFC501B4012CD0DC011D
:1006C000CB018C0D9D1DAE1DBF1DB7FF03C0019753
:1006D000A109B04888839983AA83BB839F77DF9160
:1006E000CF91FF90EF90DF90CF90BF90AF909F9011
:1006F0008F900895B7DF089586E690E0B3DF089500
:10070000A0E0B0E08093660090936700A09368003B
:10071000B09369000895EE27FF27AA27BB2708C0DA
:10072000A20FB31FE41FF51F220F331F441F551FD5
:10073000969587957795679598F37040A9F70097F8
:1007400099F7BD01CF010895052E97FB16F400948B
:100750000FD057FD05D014D007FC02D046F408C0D6
:1007600050954095309521953F4F4F4F5F4F0895DD
:1007700090958095709561957F4F8F4F9F4F08950D
:10078000A1E21A2EAA1BBB1BFD010DC0AA1FBB1F95
:10079000EE1FFF1FA217B307E407F50720F0A21B07
:1007A000B30BE40BF50B661F771F881F991F1A9474
:1007B00069F760957095809590959B01AC01BD019E
:0807C000CF010895F894FFCF6A
:0A07C8000100010001000100000023
:00000001FF
