:020000040000FA
:100000000C9460030C9488030C9488030C9488036C
:100010000C9488030C9488030C9488030C94880334
:100020000C9488030C9488030C9488030C94880324
:100030000C9488030C9488030C9488030C94880314
:100040000C94ED0F0C9488030C945D100C943710F5
:100050000C9488030C9488030C9488030C948803F4
:100060000C948F100C94880300407A10F35A00A06F
:10007000724E18090010A5D4E80000E87648170071
:1000800000E40B54020000CA9A3B000000E1F505B1
:10009000000080969800000040420F000000A086FB
:1000A00001000000102700000000E803000000002D
:1000B0006400000000000A000000000001000000D1
:1000C00000002C76D888DC674F0823DFC1DFAE59EB
:1000D000E1B1B796E5E3E453C63AE651997696E87E
:1000E000E6C28426EB898C9B62ED407C6FFCEFBC02
:1000F0009C9F40F2BAA56FA5F490055A2AF75C932D
:100100006B6CF9676DC11BFCE0E40D47FEF520E662
:10011000B500D0ED902E0300943577050080841E45
:10012000080000204E0A000000C80C333333330FA0
:10013000986E12831141EF8D2114893BE65516CF3D
:10014000FEE6DB18D1844B381BF77C1D901DA4BB49
:10015000E424203284725E228100C9F124ECA1E5FE
:100160003D2700000000003E5B4F5B3E3E6B4F6B47
:100170003E1C3E7C3E1C183C7E3C181C577D571C88
:100180001C5E7F5E1C00183C1800FFE7C3E7FF0001
:1001900018241800FFE7DBE7FF30483A060E26294F
:1001A000792926407F050507407F05253F5A3CE712
:1001B0003C5A7F3E1C1C08081C1C3E7F14227F22D8
:1001C000145F5F005F5F06097F017F006689956AA3
:1001D000606060606094A2FFA29408047E0408102E
:1001E000207E201008082A1C08081C2A08081E1057
:1001F0001010100C1E0C1E0C30383E3830060E3E0F
:100200000E06000000000000005F0000000700076D
:1002100000147F147F14242A7F2A12231308646297
:1002200036495620500008070300001C22410000F8
:1002300041221C002A1C7F1C2A08083E0808008056
:1002400070300008080808080000606000201008EE
:1002500004023E5149453E00427F400072494949EF
:10026000462141494D331814127F10274545453921
:100270003C4A494931412111090736494949364625
:100280004949291E00001400000040340000000805
:1002900014224114141414140041221408020159A8
:1002A00009063E415D594E7C1211127C7F49494935
:1002B000363E414141227F4141413E7F49494941CA
:1002C0007F090909013E414151737F0808087F00F9
:1002D000417F41002040413F017F081422417F407F
:1002E0004040407F021C027F7F0408107F3E414156
:1002F000413E7F090909063E4151215E7F091929C6
:1003000046264949493203017F01033F4040403FAF
:100310001F2040201F3F4038403F631408146303F0
:10032000047804036159494D43007F41414102046F
:10033000081020004141417F040201020440404076
:100340004040000307080020545478407F2844446C
:10035000383844444428384444287F385454541886
:1003600000087E090218A4A49C787F080404780081
:10037000447D40002040403D007F10284400004163
:100380007F40007C047804787C0804047838444476
:100390004438FC1824241818242418FC7C0804046D
:1003A00008485454542404043F44243C4040207CD6
:1003B0001C2040201C3C4030403C44281028444C29
:1003C0009090907C4464544C4400083641000000F6
:1003D000770000004136080002010204023C262397
:1003E000263C1EA1A161123A4040207A385454554F
:1003F0005921555579412254547842215554784019
:1004000020545579400C1E527212395555555939A0
:100410005454545939555454580000457C410002F5
:10042000457D420001457C407D1211127DF028255A
:1004300028F07C545545002054547C547C0A097F94
:100440004932494949323A4444443A324A484830A8
:100450003A4141217A3A42402078009DA0A07D3D5A
:100460004242423D3D4040403D3C24FF2424487EE2
:100470004943662B2FFC2F2BFF0929F620C0887ECD
:10048000090320545479410000447D413048484AD2
:1004900032384040227A007A0A0A727D0D19317D85
:1004A0002629292F28262929292630484D40203859
:1004B0000808080808080808382F10C8ACBA2F1018
:1004C0002834FA00007B000008142A142222142A7F
:1004D00014085500550055AA55AA55AAFF55FF55B1
:1004E000FF000000FF00101010FF00141414FF00A4
:1004F0001010FF00FF1010F010F0141414FC001482
:1005000014F700FF0000FF00FF1414F404FC14149F
:1005100017101F10101F101F1414141F001010109C
:10052000F0000000001F101010101F10101010F02D
:1005300010000000FF101010101010101010FF100D
:10054000000000FF140000FF00FF00001F10170054
:1005500000FC04F414141710171414F404F400002D
:10056000FF00F714141414141414F700F7141414DF
:10057000171410101F101F141414F4141010F0107E
:10058000F000001F101F0000001F14000000FC14EA
:100590000000F010F01010FF10FF141414FF1410DE
:1005A00010101F00000000F010FFFFFFFFFFF0F031
:1005B000F0F0F0FFFFFF0000000000FFFF0F0F0F43
:1005C0000F0F3844443844FC4A4A4A347E0202063B
:1005D00006027E027E0263554941633844443C046E
:1005E000407E201E2006027E020299A5E7A5991CE6
:1005F0002A492A1C4C7201724C304A4D4D30304809
:10060000784830BC625A463D3E494949007E010166
:10061000017E2A2A2A2A2A44445F444440514A44FB
:100620004040444A51400000FF0103E080FF0000C9
:1006300008086B6B083612362436060F090F0600C1
:100640000018180000001010003040FF0101001FCA
:1006500001011E00191D1712003C3C3C3C0000002B
:10066000000000000000240027002A00000000080D
:100670000002010000030407000000000000000069
:1006800000000000230026002900010204081020B9
:10069000408001020408102001020408102000001C
:1006A0000000250028002B000404040404040404B2
:1006B000020202020202030303030303AA115619F2
:1006C00011241FBECFEFD8E0DEBFCDBF24E0ACE6E3
:1006D000B3E001C01D92A33DB207E1F713E0A0E033
:1006E000B1E0E8EAFFE302C005900D92AC36B10735
:1006F000D9F713E0CFE5D3E004C02197FE010E94B3
:10070000CA1DCE35D107C9F70E9481120C94C71FAC
:100710000C940000FC0120812EBD0DB407FEFDCF1E
:100720002EB5FC0120830895833081F028F48130B8
:1007300099F08230A9F008958730A9F08830C9F087
:100740008430B1F4809180008F7D03C0809180005F
:100750008F7780938000089584B58F7784BD089546
:1007600084B58F7DFBCF8091B0008F778093B000F0
:1007700008958091B0008F7DF9CFCF93DF93282F1C
:1007800030E0F901E459F94F8491F901E657F94F46
:10079000D491F901E855F94FC491CC23A1F081110E
:1007A0000E949403EC2FF0E0EE0FFF1FE058F94F8A
:1007B000A591B491EC91ED2381E090E009F480E003
:1007C000DF91CF91089580E090E0FACF1F93CF930F
:1007D000DF93282F30E0F901E459F94F8491F901B2
:1007E000E657F94FD491F901E855F94FC491CC235C
:1007F000A9F0162F81110E949403EC2FF0E0EE0F68
:10080000FF1FE256F94FA591B4918FB7F894EC9180
:10081000111108C0D095DE23DC938FBFDF91CF91FB
:100820001F910895DE2BF8CFCF93DF9390E0FC016A
:10083000E657F94F24918855994FFC0184918823FC
:10084000D1F090E0880F991FFC01EE59F94FA59166
:10085000B491FC01E256F94FC591D49161110EC0DB
:100860009FB7F8948C91E22FE0958E238C9328818A
:10087000E223E8839FBFDF91CF9108958FB7F8946B
:10088000EC91E22BEC938FBFF6CF8E508064809377
:100890007C0080917A00806480937A0080917A0055
:1008A00086FDFCCF80917800909179000895823088
:1008B000910538F0880F991F880F991F05970197A8
:1008C000F1F708959F92AF92BF92CF92DF92EF928D
:1008D000FF920F931F93CF93DF93EC016B018885F9
:1008E000998511E0892B09F010E8F601A0808A2D86
:1008F0008123992493948111912C2C813D814E81E7
:100900005F8160E271EA87E090E00E94941D022F0F
:10091000B12CE22EF12C002319F0C7010E945704DC
:100920008A85877F09F04FC08D858F3F89F09A2D8A
:10093000912381E009F480E0891551F0EF85F88971
:100940008F899923D1F19081892B80839924939465
:10095000E989FA898081998D892B8083002319F098
:10096000C7010E9457048E858F3F39F0EB89FC89BF
:100970008081988D892309F0B12AE989FA899081CB
:10098000898D8095892380838E858F3F11F0F601B4
:10099000B08288859985892B09F044C0110F111107
:1009A000BACFDF91CF911F910F91FF90EF90DF9021
:1009B000CF90BF90AF909F900895908180958923AC
:1009C0008083912CC5CFE989FA898081998D892B03
:1009D0008083002319F0C7010E9457048D858F3F43
:1009E00049F0EF85F8898F899A2D9123B9F090818C
:1009F000892B8083E989FA899081898D8095892363
:100A000080838E858F3F09F4BFCFEB89FC8980817D
:100A1000988D892309F4B8CFB12AB6CF90818095FB
:100A20008923E7CF1695BBCFAF92BF92CF92DF92CB
:100A3000EF92FF920F931F93CF93DF931F92CDB747
:100A4000DEB78C015B016A01DC018D919C911197ED
:100A5000892B39F01296ED91FC91908181819CBD9A
:100A60008DBDF80183858F3F19F060E00E94E60399
:100A70007501CA0CDB1CCE14DF04A9F0D7018D91DF
:100A80007D018983F80180819181892B29F0CE0134
:100A900001960E948A03EFCFBE016F5F7F4FC801AE
:100AA0000E946204E8CFD8011B968C918F3F19F009
:100AB00061E00E94E60381E00F90DF91CF911F91EA
:100AC0000F91FF90EF90DF90CF90BF90AF9008957F
:100AD0003FB7F8948091FB039091FC03A091FD0334
:100AE000B091FE0326B5A89B05C02F3F19F00196D3
:100AF000A11DB11D3FBFBA2FA92F982F8827BC0178
:100B0000CD01620F711D811D911D42E0660F771F9F
:100B1000881F991F4A95D1F708958F929F92AF929F
:100B2000BF92CF92DF92EF92FF924B015C010E9445
:100B300068056B017C010E9468056C197D098E09AE
:100B40009F09683E734081059105A8F321E0821A50
:100B50009108A108B10888EEC80E83E0D81EE11CF8
:100B6000F11C81149104A104B10429F7FF90EF90C6
:100B7000DF90CF90BF90AF909F908F9008950F938C
:100B80001F93CF93DF93EC01FB014481558160817A
:100B90007181E881F9810280F381E02D09958C0152
:100BA000E881F9810280F381E02D42E050E06CE3BE
:100BB00073E0CE010995800F911FDF91CF911F91B6
:100BC0000F910895AF92BF92CF92DF92EF92FF9272
:100BD0000F931F93CF93DF936C017B018B01040F65
:100BE000151FEB015E01AE18BF08C017D10759F001
:100BF0006991D601ED91FC910190F081E02DC60143
:100C00000995892B79F7C501DF91CF911F910F913C
:100C1000FF90EF90DF90CF90BF90AF900895FC01D0
:100C2000538D448D252F30E0842F90E0821B930B51
:100C3000541710F0CF96089501970895FC01918DF7
:100C4000828D981761F0A28DAE0FBF2FB11D5D96FA
:100C50008C91928D9F5F9F73928F90E008958FEF9C
:100C60009FEF0895FC01918D828D981731F0828D50
:100C7000E80FF11D858D90E008958FEF9FEF0895A7
:100C8000FC01918D228D892F90E0805C9F4F821B0B
:100C900091098F73992708958FEF93E00E94400682
:100CA00021E0892B09F420E0822F089580E090E074
:100CB000892B29F00E944C0681110C9400000895A4
:100CC000FC01A48DA80FB92FB11DA35ABF4F2C91C1
:100CD000848D90E001968F739927848FA689B789B8
:100CE0002C93A089B1898C91837080648C93938DAF
:100CF000848D981306C00288F389E02D80818F7D52
:100D000080830895EF92FF920F931F93CF93DF9309
:100D1000EC0181E0888F9B8D8C8D98131AC0E88937
:100D2000F989808185FF15C09FB7F894EE89FF8906
:100D30006083E889F98980818370806480839FBFA4
:100D400081E090E0DF91CF911F910F91FF90EF90A4
:100D50000895F62E0B8D10E00F5F1F4F0F731127B4
:100D6000E02E8C8D8E110CC00FB607FCFACFE889EF
:100D7000F989808185FFF5CFCE010E946006F1CF11
:100D8000EB8DEC0FFD2FF11DE35AFF4FF0829FB763
:100D9000F8940B8FEA89FB8980818062CFCFCF9353
:100DA000DF93EC01888D8823B9F0AA89BB89E88993
:100DB000F9898C9185FD03C0808186FD0DC00FB639
:100DC00007FCF7CF8C9185FFF2CF808185FFEDCFB7
:100DD000CE010E946006E9CFDF91CF9108950F9375
:100DE0001F93CF93DF931F92CDB7DEB78C0169833A
:100DF00060E0FC01868D0E94E60341E050E0BE0108
:100E00006F5F7F4FF801838D948D0E9414050F90C2
:100E1000DF91CF911F910F910895CF93C82F87FD38
:100E2000CFE7C093BB0461E28CE994E00E94EF0637
:100E30006C2F60688CE994E00E94EF0660E28CE918
:100E400094E0CF910C94EF06CF938091B90487FD85
:100E500013C061E00E94140460E08091B9040E9414
:100E6000E60361E070E080E090E00E948D0561E0C3
:100E70008091B9040E94E603C091BC04C83008F018
:100E8000C7E0C093BC0461E28CE994E00E94EF06E5
:100E90006C2F60618CE994E00E94EF0660E28CE9BF
:100EA00094E00E94EF068091BB040E940D0760E26F
:100EB0008CE994E00E94EF066CE08CE994E0CF911D
:100EC0000C94EF06FF920F931F93CF93DF939091B3
:100ED000BD04992339F08091BE048F5F8917E8F52E
:100EE0008093BE04D091C104D695D695D69584E55D
:100EF000D89F800111248091C2048695869586959D
:100F00008D1780F16D2F60648CE994E00E94EF06EC
:100F1000C091BF04F090C0046C2F60688CE994E02D
:100F20000E94EF0661E08091BA040E94E6034F2D13
:100F300050E06C2F70E0461B570B4F5F5F4F600F08
:100F4000711F60507F4F8091B7049091B8040E9448
:100F50001405DF5F0C5A1F4FCECF1092BE040E94C3
:100F60002407C0CF60E48CE994E00E94EF0683E59B
:100F70008093BF041092C0048FE28093C10410924A
:100F8000C204DF91CF911F910F91FF9008951F939D
:100F9000CF93DF93EC01162F60E20E94EF066CE026
:100FA00011116DE0CE01DF91CF911F910C94EF06EE
:100FB000FC0177FD55C080859185681779070CF095
:100FC0004FC057FD4DC082859385481759070CF0D7
:100FD00047C08689823009F444C0833009F44EC08A
:100FE000813031F48FE290E0861B970BBA01AC019F
:100FF000842FA62F93A1691708F4962F93A394A189
:101000009A1708F49A2F94A395A1891708F4982F9A
:1010100095A396A1981708F4982F96A3CA0157FD97
:101020000796E3E095958795EA95E1F7A4E5A89FF3
:10103000F001A99FF00D1124E60FF71FE050FF4FBC
:10104000CA0168E070E00E94801D41E050E001C0EC
:10105000440F8A95EAF78081232BB9F0842B808393
:10106000089583E590E0DC01A61BB70BBD018FE27C
:1010700090E0DC01A41BB50BAD01BACF83E590E095
:10108000841B950BAB01BC01B3CF40958423E7CF04
:1010900020919303260F3327331F21323105ECF4BF
:1010A0002091B703FC0190E080E0243069F082E0F9
:1010B0000895A09193032191AC014D585C4FA40F6A
:1010C000B52FB11D2C930196861798F38091930349
:1010D000680F6093930380E0089581E00895089578
:1010E0008FEF9FEF08958FEF9FEF089580916C032E
:1010F00090E09195819591090895CF93DF93CB016D
:10110000EA01642F0E944808CE01DF91CF91089533
:10111000CF93DF931F92CDB7DEB7698361E0CE0135
:1011200001960E94480881E090E00F90DF91CF91F6
:1011300008950895FC016370668B848195812681F2
:101140003781613039F0633029F0918780873387A8
:1011500022870895318720879387828708952F9269
:101160003F924F925F926F927F928F929F92AF9237
:10117000BF92CF92DF92EF92FF920F931F93CF9384
:10118000DF93CDB7DEB76A970FB6F894DEBF0FBE18
:10119000CDBF9A8F898F7A8369834A01D22E1887AF
:1011A0000F833701BC2CDC0159962D913C915A9745
:1011B0002115310509F015C118968D919C9119974B
:1011C000681779070CF0D7C11A968D919C91481732
:1011D00059070CF0D0C14C2C512CB6E0CB9E600DC1
:1011E000711D11247C876B87161617060CF0C3C17E
:1011F000EA2DF0E0FA87E98793E0EE0FFF1F9A955A
:10120000E1F7F88BEF87CF01840F951F18161906A9
:101210000CF0B1C1A98DBA8D58968C91811104C082
:10122000BFEABD1508F4D394A98DBA8DED91FC9158
:1012300011970284F385E02DCD010995B5E0DB9E81
:10124000C0011124E981FA81FC83EB83312C212C2C
:101250009C012E593E4F388F2F8B4A2D50E05E8BCC
:101260004D8BEF89F88DE20DF31D44919E828D82A6
:10127000D12CC12C69817A81620D731D7A8B698BA7
:10128000842F90E09C8B8B8BE98DFA8DA081B181AE
:1012900040FF82C0F1E0BF126FC0AF126DC01C965C
:1012A000ED91FC912F813885A4014C0D5D1D69895C
:1012B0007A89898D9A8D0995EB89FC89F595E79551
:1012C0004E2F5FEFC51AD50A6D817E818D899E896B
:1012D000680F791F7E836D8398E0C916D10481F66B
:1012E000AFEF2A1A3A0AEB81FC81E40DF51DFC836D
:1012F000EB83F5E02F16310409F0B3CF2F81388549
:1013000026153705B9F0A98DBA8DED91FC91B1E0A4
:10131000BB1257C0AB1255C069817A816B5F7F4F9A
:101320000088F189E02D830128E030E0A401898D57
:101330009A8D0995A98DBA8DED91FC91119706882A
:10134000F789E02DCD016A960FB6F894DEBF0FBE87
:10135000CDBFDF91CF911F910F91FF90EF90DF9064
:10136000CF90BF90AF909F908F907F906F905F9045
:101370004F903F902F9009941E96ED91FC91EF8035
:10138000F88409851A8592014D815E816B817C818B
:10139000898D9A8D099590CF2F813885261537052F
:1013A00009F48ACF31E0B31207C0A31205C01C961E
:1013B000ED91FC91930178CF1E96ED91FC91730114
:1013C000E0CF6B857C85641975090684F785E02D6F
:1013D00073010F8518899201A401898D9A8D099551
:1013E000A9CFF90134969491329745915491D91A25
:1013F000B7E0DB9E400D511D1124F9012591349178
:101400003C8B2B8BFA0125903490FA013296749024
:1014100031963491398B329664903196449041E004
:101420004C1518F04A1508F07FC0662D062C000CEC
:10143000770B7C836B83842D042C000C990B9E838B
:101440008D83A98DBA8DED91FC9111970284F3855E
:10145000E02DCD010995512CD12CC12CEA2DF0E0C5
:10146000FA87E9872B2D30E03C872B87A401440DB8
:10147000511D47FC5A95588F4F8B69817A81660DB3
:10148000711D67FC7A957E876D877989C71608F08C
:1014900051CF2C2D30E04D815E81420F531FA98525
:1014A000BA854A9FC0014B9F900D5A9F900D112401
:1014B000FC01E80DF91DF88BEF87852D612C4F8914
:1014C000588D420F531F5E8B4D8B671408F050C030
:1014D00044244394480E877041F4C1010196EB897E
:1014E000FC89E20DF31DD4901C01D7FE19C0A98D13
:1014F000BA8DED91FC91662D70E0B1E0BB1219C080
:10150000AB1217C02D853E85620F731F0484F585CD
:10151000E02D2F8138854D895E89898D9A8D0995B9
:10152000DD0C6394842DD1CF1E821D821C821B8210
:1015300088CF4B815C81640F751FAB85BC856A9F2A
:10154000C0016B9F900D7A9F900D112469817A8163
:10155000680F791F0684F785E02DEF80F8840985F0
:101560001A859D014F855889898D9A8D0995D8CF07
:10157000570CC3948ACF6A960FB6F894DEBF0FBE9D
:10158000CDBFDF91CF911F910F91FF90EF90DF9032
:10159000CF90BF90AF909F908F907F906F905F9013
:1015A0004F903F902F9008958F929F92AF92CF923D
:1015B000EF92FF920F931F93CF93DF93EC01262FAF
:1015C000898D9A8D009709F051C06A30D1F41D863B
:1015D0001C868D8948E0849F900111248E859F850B
:1015E000820F931F9F878E8781E090E0DF91CF91DC
:1015F0001F910F91FF90EF90CF90AF909F908F90A1
:1016000008956D3089F3CC88AD888F898823C1F027
:101610008C859D8536E0C39E800D911D11244885E3
:1016200059854817590764F44E855F851D861C86C9
:1016300038E0A39EC0011124840F951F9F878E87D9
:10164000EA88FB88088919894E855F856C857D85C8
:10165000CE010E94AF082C898C859D8546E0249F91
:10166000800D911D11249D878C87BECF6A3069F44F
:101670001D861C86FC013896E4912D898E859F85F8
:10168000E29F800D911D1124ADCF6D3009F4ACCFD8
:10169000FC0134963491631708F4A6CF3296E49196
:1016A000E61708F4A1CFFC01329685909490462F5E
:1016B000431B342F47E0349F800C911C1124F4010C
:1016C000329634913196E4913323A9F1EE2399F1C6
:1016D000CC88F4013596E491AD884F89442301F11B
:1016E0000E2E000CFF0BE30FF11DCE9EA001CF9E2E
:1016F000500D11246C857D85460F571F68857985AF
:10170000641775076CF44E855F851D861C86FC0189
:101710003896E491AE9E400D511D11245F874E878F
:10172000EA88FB88088919894E855F856C857D85E7
:10173000CE010E94AF08F4013496E4912C898C8587
:101740009D85E29F800D911D11248DCF6F927F9218
:101750008F929F92AF92BF92CF92DF92EF92FF92C1
:101760000F931F93CF93DF93EC016B015A01390163
:101770004801E881F9810284F385E02D0995E8812B
:10178000F9810288F389E02D87019301A501B60153
:10179000CE010995A501480D591D41505109E88117
:1017A000F9810288F389E02D9301B601CE010995F4
:1017B000E881F9810088F189E02D9401A501B60145
:1017C000CE010995C60CD71CB60161507109E8819C
:1017D000F9810088F189E02D9401A501CE010995D8
:1017E000E881F9810688F789E02DCE01DF91CF915C
:1017F0001F910F91FF90EF90DF90CF90BF90AF902F
:101800009F908F907F906F9009946F927F928F92AC
:101810009F92AF92BF92CF92DF92EF92FF920F937F
:101820001F93CF93DF935C01EB016A0149013801FB
:101830008701DC01ED91FC916217730719F56416BD
:1018400075062CF0962D872D3A01C92ED82E9601BB
:10185000261937092F5F3F4F048CF58DE02DA3012A
:10186000BE01C5010995DF91CF911F910F91FF90A6
:10187000EF90DF90CF90BF90AF909F908F907F9030
:101880006F9008954615570591F42617370724F0F1
:10189000892D4B01C22FD82F9E01281939092F5F9E
:1018A0003F4F068CF78DE02DA601B401DACF0284FC
:1018B000F385E02D0995D501ED91FC910488F5891A
:1018C000E02D83019401A601BE01C5010995D50152
:1018D000ED91FC910688F789E02DC501DF91CF914C
:1018E0001F910F91FF90EF90DF90CF90BF90AF903E
:1018F0009F908F907F906F900994EF92FF920F933B
:101900001F93DC011A960D911C911B9718962D912F
:101910003C911997ED91FC9100A0F1A1E02D7B0184
:1019200050E040E070E060E009951F910F91FF905A
:10193000EF9008954F925F926F927F928F929F9255
:10194000AF92BF92CF92DF92EF92FF920F931F93CD
:10195000CF93DF936C012B015A0139014801DC015F
:10196000ED91FC910284F385E02D0995E201640C70
:10197000751CD601ED91FC91C615D7055CF4008865
:10198000F189E02D87019401A501BE01C6010995E9
:101990002196EFCF0688F789E02DC601DF91CF9120
:1019A0001F910F91FF90EF90DF90CF90BF90AF907D
:1019B0009F908F907F906F905F904F9009948F923F
:1019C0009F92AF92BF92CF92DF92EF92FF920F93CE
:1019D0001F93CF93DF93EC015B014A016901E8811A
:1019E000F9810284F385E02D099595012C0D3D1DAB
:1019F00021503109E881F9810488F589E02D7801C9
:101A00008401A401B501CE010995E881F981068818
:101A1000F789E02DCE01DF91CF911F910F91FF90BB
:101A2000EF90DF90CF90BF90AF909F908F900994F0
:101A30008F929F92AF92BF92CF92DF92EF92FF92DE
:101A40000F931F93CF93DF93EC015B014A01690170
:101A50007801E881F9810284F385E02D0995C80CAD
:101A6000D91C860101501109E881F9810488F589A2
:101A7000E02D9501A401B501CE010995E881F98118
:101A80000688F789E02DCE01DF91CF911F910F914C
:101A9000FF90EF90DF90CF90BF90AF909F908F908E
:101AA0000994EF92FF920F931F93DC01ED91FC914B
:101AB00000A0F1A1E02D09951F910F91FF90EF90EB
:101AC00008950F931F93DC01ED91FC91068CF78D27
:101AD000E02D09951F910F9108950F931F93DC013D
:101AE000ED91FC91048CF58DE02D09951F910F91DE
:101AF0000895DC01ED91FC910084F185E02D0994BD
:101B00002F923F924F925F926F927F928F929F920D
:101B1000AF92BF92CF92DF92EF92FF920F931F93FB
:101B2000CF93DF9300D000D000D0CDB7DEB73C011B
:101B30006A013E832D83FC82EB825801A41AB50A08
:101B4000B7FE03C0B194A194B1088D809E80861A1F
:101B5000970A97FE03C09194819491088A149B047C
:101B60005CF0902F812F0D811E819D838E839C2D93
:101B70008D2D6B01692F782F0C151D055CF09D8153
:101B80008E817E836D83692F782F902F812F860120
:101B9000C92ED82E1601201A310A2B012D813E8123
:101BA000421A530A57FE03C05194419451087101DF
:101BB00037FE03C03FEFE31AF30AF594E7948D81F3
:101BC0009E81861797075CF5A1E0B0E0BA83A983F0
:101BD000C016D1064CF1D301ED91FC910484F5853A
:101BE000E02D2B813C81A8016D817E818A149B04AC
:101BF0001CF04D815E81B801C3010995E418F50818
:101C0000F7FE0AC02D813E8189819A81280F391FF4
:101C10003E832D83E20CF31C0F5F1F4FD9CF2FEFB4
:101C20003FEF3A832983D4CF26960FB6F894DEBFD0
:101C30000FBECDBFDF91CF911F910F91FF90EF901D
:101C4000DF90CF90BF90AF909F908F907F906F90DC
:101C50005F904F903F902F900895089590E080E01E
:101C60000895E0E0F1E088EF91E0DF019C011D9232
:101C700021503040E1F71092BF048091C0048335B9
:101C800008F483E58093C0041092C1048091C204DB
:101C90008F3208F48FE28093C2041092A90410924C
:101CA000A8041092AB041092AA0408950E94B21FD7
:101CB0000F931F93CF93DF93EC0188819981009755
:101CC00059F02A813B812617370730F081E0DF91F8
:101CD000CF911F910F9108958B016F5F7F4F0E94ED
:101CE000F51E009759F0998388831B830A832C8102
:101CF0003D81232B59F7FC011082E8CF80E0E7CF2C
:101D0000EF92FF920F931F93CF93DF9361157105AD
:101D100041F480E0DF91CF911F910F91FF90EF9000
:101D2000089541155105B1F07B01EC010C811D8135
:101D3000040F151FB8010E94580E882351F3288103
:101D400039818C819D81B701820F931F0E94C01F32
:101D50001D830C8381E0DECFCF93DF93EC0188817C
:101D60009981009711F00E946C1E198218821D82C1
:101D70001C821B821A82DF91CF910895CF93DF934B
:101D8000EC01FB0101900020E9F73197AF01461B00
:101D9000570B0E94800E811103C0CE010E94AC0E31
:101DA000CE01DF91CF910895CF93DF93EC01FB013A
:101DB00044815581608171810E94800E811103C030
:101DC000CE010E94AC0ECE01DF91CF910895EF922B
:101DD000FF920F931F93CF93DF93EC017B018A0156
:101DE000BA010E94580E81110BC0CE010E94AC0EA8
:101DF000CE01DF91CF911F910F91FF90EF90089549
:101E00001D830C83B701888199810E94C01FF0CF88
:101E1000FB0101900020E9F73197AF01461B570BFA
:101E20000C94E70EEF92FF920F931F93CF93DF93E3
:101E3000CDB7DEB7A1970FB6F894DEBF0FBECDBF0A
:101E40007C01CB01BA01F701118210821382128248
:101E5000158214828E010F5F1F4F22E044E00E9422
:101E60005E19009789F0BC01C7010E94080FA19676
:101E70000FB6F894DEBF0FBECDBFDF91CF911F919B
:101E80000F91FF90EF900895C7010E94AC0EEFCF25
:101E9000CF93DF93EC01FB018617970749F0608130
:101EA00071816115710541F0448155810E94E70EF1
:101EB000CE01DF91CF9108950E94AC0EF9CFFC01C5
:101EC000118210821382128215821482FB0101900A
:101ED0000020E9F73197AF01461B570B0C94E70E32
:101EE000FC0180819181009711F00C946C1E089583
:101EF0001F93CF93DF9385ED8093BC0080916F0398
:101F000090917003A0917103B09172030796A11D87
:101F1000B11D23E0B695A795979587952A95D1F79A
:101F20002091BC0024FD03C01092B70352C0409121
:101F30006F03509170036091710370917203452B90
:101F4000462B472B69F30097A105B10541F02AE222
:101F50002A95F1F700C00197A109B109E1CF80915D
:101F60006E03C1E0C0936D03882399F1D091B8004E
:101F70001091BA008091BC008A7B8093BC0060E025
:101F800082E10E94E60360E083E10E94E603109292
:101F9000B703C093B9031092B80361E082E10E94D5
:101FA000E60361E083E10E94E6038091B9008E7F41
:101FB0008093B9008091B9008D7F8093B90088E447
:101FC0008093B80085E48093BC001093BA00D0934E
:101FD000B800DF91CF911F9108951F920F920FB615
:101FE0000F9211242F933F938F939F93AF93BF939F
:101FF0008091F7039091F803A091F903B091FA034F
:102000003091F60323E0230F2D3758F50196A11DDB
:10201000B11D2093F6038093F7039093F803A093E8
:10202000F903B093FA038091FB039091FC03A09114
:10203000FD03B091FE030196A11DB11D8093FB032A
:102040009093FC03A093FD03B093FE03BF91AF9167
:102050009F918F913F912F910F900FBE0F901F90E6
:10206000189526E8230F0296A11DB11DD2CF1F920D
:102070000F920FB60F9211242F933F934F935F93BC
:102080006F937F938F939F93AF93BF93EF93FF9340
:102090008FEF93E00E946006FF91EF91BF91AF91A7
:1020A0009F918F917F916F915F914F913F912F9170
:1020B0000F900FBE0F901F9018951F920F920FB6A2
:1020C0000F9211242F938F939F93EF93FF93E0919F
:1020D0000F04F09110048081E0911504F091160432
:1020E00082FD1BC09081809118048F5F8F732091B7
:1020F0001904821741F0E0911804F0E0E150FC4F20
:10210000958F80931804FF91EF919F918F912F915C
:102110000F900FBE0F901F9018958081F4CF1F92E3
:102120000F920FB60F9211242F933F934F935F930B
:102130006F937F938F939F93AF93BF93EF93FF938F
:102140008091B900887F803609F44AC0F0F5883262
:1021500009F4A5C018F5803109F499C0B8F48823B2
:1021600009F4F5C0883009F492C0FF91EF91BF9156
:10217000AF919F918F917F916F915F914F913F911F
:102180002F910F900FBE0F901F901895883109F472
:1021900086C0803251F78093B60314C0803409F4AE
:1021A0009BC040F48033B9F38833F9F68093B603CB
:1021B00085ECAEC0803509F483C0883509F494C03D
:1021C000883499F60E94780FD0CF883909F48AC0F4
:1021D00038F5883729F050F4883611F0803729F621
:1021E00083E08093B7031092B50355C0883809F493
:1021F00079C0803919F0803809F0B7CF8091B503E4
:10220000803208F06FC0E091B50381E08E0F8093BB
:10221000B5038091BB00F0E0EB56FC4F80833BC0E0
:10222000803B39F0D0F4803A09F477C0883A09F05D
:102230009CCF84E08093B703109294031092930391
:10224000F0E0E0E009958091930381110FC081E0F7
:10225000809393031092730309C0803C09F4A8CFC4
:10226000883C09F4A5CF883B09F07FCFE091940327
:1022700081E08E0F80939403F0E0ED58FC4F808155
:102280008093BB00909194038091930329C0809127
:10229000DC038093BB0085EC8093BC0066CF9091FB
:1022A000DB038091DA03981758F5E091DB0381E0B6
:1022B0008E0F8093DB03F0E0E654FC4F8081E9CF82
:1022C000E091DB0381E08E0F8093DB038091BB0004
:1022D000F0E0E654FC4F80839091DB038091DA03B9
:1022E0009817C8F285E8D8CFE091DB0381E08E0F24
:1022F0008093DB038091BB00F0E0E654FC4F8083C9
:102300008091B90381115ECF81E08093B80384EAA4
:102310008093BC001092B70328CF85EC8093BC005B
:102320001092B7038091B503803230F4E091B50389
:10233000F0E0EB56FC4F10826091B50370E085E948
:1023400093E0F0E0E0E009951092B5030ECF109213
:10235000B60338CFCF93DF93EFEFF3E0138212820F
:1023600088EE93E0A0E0B0E084839583A683B783F2
:1023700082E093E09183808385EC90E09587848769
:1023800084EC90E09787868780EC90E0918B808B3F
:1023900081EC90E0938B828B82EC90E0958B848B28
:1023A00086EC90E0978B868B118E128E138E148E96
:1023B0006EE373E089EC94E00E945F0F6EE373E0DC
:1023C00083EC94E00E945F0FCCE9D4E01B821A8278
:1023D00024E530E03D832C8380E390E09F838E836F
:1023E000398728879B878A871E8A1D861C861F86B9
:1023F0001E8681E08D8B8C8B2FEF3FEF3B8B2A8BE2
:10240000398B288B8F8B188E1A8E198E84E193E06E
:10241000998388838CE190E00E94D01DDC011196A5
:102420001C921E9213961C921E92129784E01B9689
:102430008C931B9787E01C968C931C978FEF1E96AE
:102440008C931E9786E01D968C931D97ECEAF6E020
:10245000E491F0E0EE0FFF1FE256F94F8591949161
:1024600056969C938E935597EEE8F6E0E4915A9633
:10247000EC935A97EEEAF6E0E491F0E0EE0FFF1FDE
:10248000E256F94F8591949150969C938E931F97A5
:10249000E0E9F6E0E4915796EC935797EFEAF6E01F
:1024A000E491F0E0EE0FFF1FE256F94F8591949111
:1024B00052969C938E935197E1E9F6E0E4915996F8
:1024C000EC93599740E059E06DE370E014964D931A
:1024D0005D936D937C93179781E090E019969C93A0
:1024E0008E9318971A961C921A975B961C925B977C
:1024F000BC8FAB8F85E08E8F83E08D8FDF91CF9186
:102500000895CF93DF93CDB7DEB76E970FB6F894EB
:10251000DEBF0FBECDBF789484B5826084BD84B524
:10252000816084BD85B5826085BD85B5816085BDCE
:1025300080916E00816080936E0010928100809186
:10254000810082608093810080918100816080930E
:102550008100809180008160809380008091B10033
:1025600084608093B1008091B00081608093B0005E
:1025700080917A00846080937A0080917A008260F2
:1025800080937A0080917A00816080937A008091B4
:102590007A00806880937A001092C10060E08EE03B
:1025A0000E94140460E08FE00E94140460E080E167
:1025B0000E94140460E081E10E94140460E088E05D
:1025C0000E94140460E089E00E94140460E08AE044
:1025D0000E94140460E08BE00E94140460E082E03A
:1025E0000E9414040091B7041091B804F801838587
:1025F0008F3F41F061E00E94140461E0F80183859F
:102600000E94E603F80180819181892B09F4E8C3D7
:10261000FFB6F8948091DD03811127C0E2EBF6E06C
:102620008491E4E9F6E09491E82FF0E0EE0FFF1FCB
:10263000EE59F94FA591B491EC91E92321F461E0B1
:102640008AE00E94E60361E08AE00E9414048CB5EF
:1026500080618CBD8CB580648CBD61E08DE00E9492
:10266000140461E08BE00E9414048091DD038F5F0D
:102670008093DD03FFBE81E0F801838F61E08091EC
:10268000BA040E9414048091B90487FD03C061E07C
:102690000E94140484E08093BC0488E28093BB040D
:1026A0001092BD041092BE040E9424071092BF0431
:1026B0008091C004833508F483E58093C0041092B0
:1026C000C1048091C2048F3208F48FE28093C20467
:1026D0000E9462078BE40E940D07E0910F04F091C5
:1026E000100482E08083E0910B04F0910C041082CE
:1026F000E0910D04F0910E048FEC8083109217048A
:10270000E0911304F091140486E08083E0911104B9
:10271000F0911204808180618083E0911104F09136
:102720001204808188608083E0911104F09112048A
:10273000808180688083E0911104F091120480818F
:102740008F7D8083EE24E394F12C4DE0842E912C38
:102750008AE1C82ED12C97E2A92EB12C20E0222E9E
:1027600020E0322E8EE00E944504BC01990F880BB8
:10277000990B0E94BA1B2B013C014092F20350922C
:10278000F3036092F4037092F5038FE00E94450416
:10279000BC01990F880B990B0E94BA1B6093EE0342
:1027A0007093EF038093F0039093F10380E10E9414
:1027B0004504BC01990F880B990B0E94BA1B6093CA
:1027C000EA037093EB038093EC039093ED0381E1B4
:1027D0000E944504BC01990F880B990B0E94BA1BFB
:1027E0006093E6037093E7038093E8039093E90313
:1027F00088E00E94BD038C019093E5038093E4037D
:1028000089E00E94BD039093E3038093E2038AE092
:102810000E94BD039093E1038093E0038BE00E944C
:10282000BD039093DF038093DE03F1E0F093B004E7
:10283000F093B104F092AF04E092AE04F092AD04D4
:10284000E092AC040E94310E0130110509F0EAC299
:1028500028E834EF4BE55DE3C301B2010E94191C87
:1028600023E738E647EC51E40E940E1DAB01BC01A2
:102870004093F2035093F3036093F4037093F503D2
:102880001092A9041092A8041092AB041092AA040A
:10289000CE0101960E94120F6FE373E0CE010796FE
:1028A0000E945F0FBE016F5F7F4FCE0107960E94AF
:1028B000D40E64E473E00E94BE0EBC0189EC94E087
:1028C0000E94480FCE0107960E94700FCE0101961C
:1028D0000E94700F69EC74E08CE994E00E94BF05DF
:1028E0004090F2035090F3036090F4037090F5036E
:1028F00020E030E040EA51E4C301B2010E947B1DB8
:10290000181654F020E030E040EA51ECC301B20167
:102910000E94B31B87FFF8C28091E4039091E50306
:10292000892B09F493C464E170E080E090E00E9498
:102930008D050E94310E6EE473E089EC94E00E94F4
:10294000080F69EC74E08CE994E00E94BF0564E034
:1029500070E080E090E00E948D058091E20390910C
:10296000E303019709F0E3C228E834EF4BE55DE3A8
:102970006091EE037091EF038091F0039091F10369
:102980000E94191C23E738E647EC51E40E940E1D13
:10299000AB01BC014093EE035093EF036093F0034F
:1029A0007093F1031092A9041092A8049092AB04C2
:1029B0008092AA04CE0101960E94120F6DE573E089
:1029C000CE0107960E945F0FBE016F5F7F4FCE0161
:1029D00007960E94D40E64E473E00E94BE0EBC0110
:1029E00089EC94E00E94480FCE0107960E94700F78
:1029F000CE0101960E94700F69EC74E08CE994E0BE
:102A00000E94BF054090EE035090EF036090F003EA
:102A10007090F10320E030E040EA51E4C301B201DC
:102A20000E947B1D181654F020E030E040EA51EC83
:102A3000C301B2010E94B31B87FFEBC28091E20386
:102A40009091E303892B09F40DC464E170E080E008
:102A500090E00E948D050E94310E6EE473E089ECD7
:102A600094E00E94080F69EC74E08CE994E00E9405
:102A7000BF0564E070E080E090E00E948D058091E9
:102A8000E0039091E103019709F0D6C228E834EF02
:102A90004BE55DE36091EA037091EB038091EC03F9
:102AA0009091ED030E94191C23E738E647EC51E4AE
:102AB0000E940E1DAB01BC014093EA035093EB034F
:102AC0006093EC037093ED031092A9041092A80494
:102AD000D092AB04C092AA04CE0101960E94120FBC
:102AE00062E673E0CE0107960E945F0FBE016F5F42
:102AF0007F4FCE0107960E94D40E64E473E00E94DB
:102B0000BE0EBC0189EC94E00E94480FCE010796EE
:102B10000E94700FCE0101960E94700F69EC74E064
:102B20008CE994E00E94BF054090EA035090EB03CB
:102B30006090EC037090ED0320E030E040EA51E457
:102B4000C301B2010E947B1D181654F020E030E052
:102B500040EA51ECC301B2010E94B31B87FFDEC201
:102B60008091E0039091E103892B09F487C364E12C
:102B700070E080E090E00E948D050E94310E6EE4CE
:102B800073E089EC94E00E94080F69EC74E08CE932
:102B900094E00E94BF0564E070E080E090E00E9455
:102BA0008D058091DE039091DF03019709F0C9C282
:102BB00028E834EF4BE55DE36091E6037091E703AD
:102BC0008091E8039091E9030E94191C23E738E6FD
:102BD00047EC51E40E940E1DAB01BC014093E6039B
:102BE0005093E7036093E8037093E9031092A904FC
:102BF0001092A804B092AB04A092AA04CE01019650
:102C00000E94120F67E673E0CE0107960E945F0FE5
:102C1000BE016F5F7F4FCE0107960E94D40E64E421
:102C200073E00E94BE0EBC0189EC94E00E94480F44
:102C3000CE0107960E94700FCE0101960E94700F80
:102C400069EC74E08CE994E00E94BF054090E603D3
:102C50005090E7036090E8037090E90320E030E0D3
:102C600040EA51E4C301B2010E947B1D181654F0E2
:102C700020E030E040EA51ECC301B2010E94B31BF6
:102C800087FFD1C28091DE039091DF03892B09F485
:102C900001C364E170E080E090E00E948D050E9435
:102CA000310E6EE473E089EC94E00E94080F69EC49
:102CB00074E08CE994E00E94BF0564E070E080E07D
:102CC00090E00E948D050E94620782E00E94BD0391
:102CD000019709F079C04091E6035091E7036091B4
:102CE000E8037091E903CE0101960E94120F409112
:102CF000EA035091EB036091EC037091ED03CE0178
:102D000007960E94120F4091EE035091EF036091DD
:102D1000F0037091F103CE010D960E94120F4091C5
:102D2000F2035091F3036091F4037091F503CE0127
:102D300049960E94120F1C8A1B8A1E8A1D8A188EB1
:102D40001F8ABE01675E7F4FCE0143960E94480FE7
:102D500062E473E0CE0143960E94BE0EBE01635F43
:102D60007F4F0E94D40E62E473E00E94BE0EBE014B
:102D7000695F7F4F0E94D40E62E473E00E94BE0E32
:102D8000BE016F5F7F4F0E94D40EBC0183EC94E0C4
:102D90000E94480FCE0143960E94700FCE014996C3
:102DA0000E94700FCE010D960E94700FCE01079603
:102DB0000E94700FCE0101960E94700F63EC74E0C8
:102DC0008FEF93E00E94BF052114310409F4CACCAF
:102DD0000E944C06882309F4BBCC0E940000B8CCAA
:102DE00061E084850E941404F80182858B7F60E095
:102DF00009F061E084850E94E603F80185858F3F34
:102E000041F061E00E94140461E0F80185850E94B0
:102E1000E603F80186858F3F09F42DCC60E00E941F
:102E2000140429CC1092F2031092F3031092F403CD
:102E30001092F50304E610E08EE00E944504BC0108
:102E4000990F880B990B0E94BA1B2B013C01209112
:102E5000F2033091F3034091F4035091F5030E9483
:102E60007B1D181644F44092F2035092F3036092D3
:102E7000F4037092F50301501109F1F624E63DE5E3
:102E80004CE55DE36091F2037091F3038091F403EC
:102E90009091F5030E94191C29E133E74FE151E4B9
:102EA0000E940E1D24EF3DEF44E35FE30E94191CD6
:102EB0002BE734E142EE50E40E940E1DAB01BC0151
:102EC0004093F2035093F3036093F4037093F5037C
:102ED0001092A9041092A8041092AB041092AA04B4
:102EE000CE0101960E94120F6FE373E0CE010796A8
:102EF0000E945F0FBE016F5F7F4FCE0107960E9459
:102F0000D40E69E473E0D7CC21E73DE342E651E417
:102F1000C301B2010E947B1D18160CF01ECD8091DA
:102F2000E4039091E503892B09F017CDFCCC1092B6
:102F3000EE031092EF031092F0031092F10304E6F7
:102F400010E08FE00E944504BC01990F880B990B9B
:102F50000E94BA1B2B013C012091EE033091EF033C
:102F60004091F0035091F1030E947B1D181644F428
:102F70004092EE035092EF036092F0037092F103DF
:102F800001501109F1F624E63DE54CE55DE3609161
:102F9000EE037091EF038091F0039091F1030E9492
:102FA000191C29E133E74FE151E40E940E1D24EF83
:102FB0003DEF44E35FE30E94191C2BE734E142EE4E
:102FC00050E40E940E1DAB01BC014093EE035093F0
:102FD000EF036093F0037093F1031092A904109231
:102FE000A8049092AB048092AA04CE0101960E949C
:102FF000120F6DE573E0CE0107960E945F0FBE01D0
:103000006F5F7F4FCE0107960E94D40E69E473E094
:10301000E4CC21E73DE342E651E4C301B2010E9462
:103020007B1D18160CF02BCD8091E2039091E303E9
:10303000892B09F024CD09CD1092EA031092EB03FD
:103040001092EC031092ED0304E610E080E10E9480
:103050004504BC01990F880B990B0E94BA1B2B01E8
:103060003C012091EA033091EB034091EC03509135
:10307000ED030E947B1D181644F44092EA0350921F
:10308000EB036092EC037092ED0301501109F1F62D
:1030900024E63DE54CE55DE36091EA037091EB03C6
:1030A0008091EC039091ED030E94191C29E133E714
:1030B0004FE151E40E940E1D24EF3DEF44E35FE336
:1030C0000E94191C2BE734E142EE50E40E940E1DD1
:1030D000AB01BC014093EA035093EB036093EC0314
:1030E0007093ED031092A9041092A804D092AB043F
:1030F000C092AA04CE0101960E94120F62E673E00C
:10310000CE0107960E945F0FBE016F5F7F4FCE0119
:1031100007960E94D40E69E473E0F1CC21E73DE309
:1031200042E651E4C301B2010E947B1D18160CF067
:1031300038CD8091E0039091E103892B09F031CDE6
:1031400016CD1092E6031092E7031092E803109256
:10315000E90304E610E081E10E944504BC01990FF7
:10316000880B990B0E94BA1B2B013C012091E603AE
:103170003091E7034091E8035091E9030E947B1DE1
:10318000181644F44092E6035092E7036092E80375
:103190007092E90301501109F1F624E63DE54CE592
:1031A0005DE36091E6037091E7038091E8039091FD
:1031B000E9030E94191C29E133E74FE151E40E9421
:1031C0000E1D24EF3DEF44E35FE30E94191C2BE743
:1031D00034E142EE50E40E940E1DAB01BC0140936D
:1031E000E6035093E7036093E8037093E9031092BA
:1031F000A9041092A804B092AB04A092AA04CE0134
:1032000001960E94120F67E673E0CE0107960E94B6
:103210005F0FBE016F5F7F4FCE0107960E94D40EF5
:1032200069E473E0FECC21E73DE342E651E4C301EB
:10323000B2010E947B1D18160CF045CD8091DE0373
:103240009091DF03892B09F03ECD23CD21E73DE3AB
:1032500042E651E4C301B2010E947B1D18160CF036
:103260007CCB61CB21E73DE342E651E4C301B201EF
:103270000E947B1D18160CF002CCE7CB21E73DE342
:1032800042E651E4C301B2010E947B1D18160CF006
:1032900088CC6DCC21E73DE342E651E4C301B201A5
:1032A0000E947B1D18160CF00ECDF3CC83EC94E03D
:1032B0000E94700F89EC94E00C94700FEF920F93C2
:1032C0001F93CF93DF93E80134E047FD34E1042EF0
:1032D000000C550B57FF03C0519541955109E32E42
:1032E000022F242FAE010E947C19CE01DF91CF91D5
:1032F0001F910F91EF900895A9E0B0E0E2E8F9E1A5
:103300000C94DD1C6A01F22EB02E102FFBE3AF2EC1
:10331000A01608F41BE31F5F012F27E0AE014F5FEB
:103320005F4F0E94DB1ABC018981982F9970913000
:1033300009F43FC09BE2E1FC04C09E2D9170E0FCCB
:103340003AC05E2D5071E82FE87083FF46C084E0DC
:10335000911101C083E0EF2DE81B8F1508F0E0E02C
:10336000D6018E2F20E2552351F1992329F0D60161
:103370009C93C60101966C0196012D5F3F4FE2FEC2
:1033800024C08EE4D6018C9391E411969C931197FE
:1033900012968C93D9018E2F90E281111BC0E20FFF
:1033A000F32FF11D10828EEF9FEF2996ECE00C9425
:1033B000F91C9DE2C6CF90E2C4CF2D9381508111BC
:1033C000FCCFCE0ED11CE0E0D0CF8EE6D6018C93A0
:1033D00091E6DBCF9D938150E0CF482F447082FF70
:1033E0003DC084E0911101C083E08F1510F4EF2DF2
:1033F000E81BD6018E2F20E2552309F1992329F0ED
:10340000D6019C93C60101966C0196012D5F3F4F3A
:10341000E2FE1BC089E4D6018C938EE411968C9356
:10342000119786E412968C93D9018E2F90E288230F
:1034300009F4B5CF9D938150FACF2D93815081111E
:10344000FCCFCE0ED11CE0E0D9CF89E6D6018C931B
:103450008EE611968C93119786E6E4CF9B0177FF59
:1034600002C030E020E0A1E0B0E0911102C0B0E085
:10347000A0E0F9013196AE0FBF1F8B2C912CBB2021
:1034800009F461C05401EFEFAE1ABE0AAA0DBB1DCC
:10349000FA161B0619F014F04F2D4A1B511188C063
:1034A000E3FC59C07601A42FB0E2A1114FC0C40EB5
:1034B000D11C992309F45BC040E0D6011196F601B6
:1034C00090836D01552309F448C0012F060F9A819E
:1034D000582F507184FF03C0913309F40150101626
:1034E0000CF047C0093008F008E0EEE2FE2E5B0168
:1034F000A01AB10885019194819491082F3F320759
:1035000029F4D601FC92F60131966F016217730718
:1035100094F1021713077CF5DB01A21BB30BAA245D
:10352000A394B12CAC0EBD1EAA0DBB1D11968C919F
:1035300021503109D601119628153905F4F0F6010C
:1035400080836D01DBCFB12CA12CA0CFF701B1930B
:103550007F01A150AACF9111B0CFD601942F50E393
:1035600002C05D9391509111FCCFC40ED11C40E07C
:10357000ACCF01E0BACF80E3DBCF6217730731F441
:10358000963388F4953311F4552369F0F60180835E
:10359000FD01842F90E2811108C0A40FB11D1C927F
:1035A00090E080E002CF81E3F1CF91938150F3CF9F
:1035B000911183CF8ACF283008F027E03327DA0132
:1035C000990F311D87FD916000966105710539F4F1
:1035D00032602E5F3D9330E32A95E1F708959F3FD7
:1035E00030F080387105610509F03C5F3C5F3D9328
:1035F000913008F08068911DDF93CF931F930F9354
:10360000FF92EF92192F987F9695E92F96959695B0
:10361000E90FFF27EE53FF4F99273327EE24FF24AE
:10362000A701E70105900894079428F4360FE71ED8
:10363000F81E491F511D660F771F881F991F06949A
:10364000A1F70590079428F4E70EF81E491F561FAE
:10365000C11D770F881F991F661F0694A1F705905B
:10366000079428F4F80E491F561FC71FD11D880F55
:10367000991F661F771F0694A1F70590079420F401
:10368000490F561FC71FD81F990F661F771F881F26
:103690000694A9F784911095177041F0D695C795B7
:1036A00057954795F794E7941A95C1F7E8E6F0E047
:1036B00068941590159135916591959105907FE2EB
:1036C0007395E118F10A430B560BC90BD009C0F7EB
:1036D000E10CF11E431F561FC91FD01D7EF470332D
:1036E00011F48A95E6CFE894015030F0080F0AF4FF
:1036F0000027021708F4202F2395022F7A3328F091
:1037000079E37D932A95E9F710C07D932A9589F690
:10371000069497956795379517951794E118F10AD0
:10372000430B560BC90BD00998F023957E917395E6
:103730007A3308F070E37C932013B8F77E917061C0
:103740007D9330F0839571E37D9370E32A95E1F7E3
:103750001124EF90FF900F911F91CF91DF91992746
:1037600087FD909508950E94F51B08F481E0089567
:10377000E89409C097FB3EF490958095709561950B
:103780007F4F8F4F9F4F9923A9F0F92F96E9BB27C1
:103790009395F695879577956795B795F111F8CF3D
:1037A000FAF4BB0F11F460FF1BC06F5F7F4F8F4FA8
:1037B0009F4F16C0882311F096E911C0772321F09E
:1037C0009EE8872F762F05C0662371F096E8862F36
:1037D00070E060E02AF09A95660F771F881FDAF78D
:1037E000880F9695879597F90895990F0008550FBA
:1037F000AA0BE0E8FEEF16161706E807F907C0F077
:1038000012161306E407F50798F0621B730B840B7E
:10381000950B39F40A2661F0232B242B252B21F458
:1038200008950A2609F4A140A6958FEF811D811DF8
:1038300008950E942C1C0C949D1C0E948F1C38F033
:103840000E94961C20F0952311F00C94861C0C9479
:103850008C1C11240C94D11C0E94AE1C70F3959FFB
:10386000C1F3950F50E0551F629FF001729FBB2777
:10387000F00DB11D639FAA27F00DB11DAA1F649F13
:103880006627B00DA11D661F829F2227B00DA11DC6
:10389000621F739FB00DA11D621F839FA00D611D4C
:1038A000221F749F3327A00D611D231F849F600D6D
:1038B000211D822F762F6A2F11249F5750409AF096
:1038C000F1F088234AF0EE0FFF1FBB1F661F771F22
:1038D000881F91505040A9F79E3F510580F00C94ED
:1038E000861C0C94D11C5F3FE4F3983ED4F386957C
:1038F00077956795B795F795E7959F5FC1F7FE2B8D
:10390000880F911D9695879597F9089597F99F6768
:1039100080E870E060E008959FEF80EC0895002457
:103920000A941616170618060906089500240A9424
:1039300012161306140605060895092E0394000CAA
:1039400011F4882352F0BB0F40F4BF2B11F460FF39
:1039500004C06F5F7F4F8F4F9F4F089557FD905862
:10396000440F551F59F05F3F71F04795880F97FB43
:10397000991F61F09F3F79F08795089512161306FD
:103980001406551FF2CF4695F1DF08C0161617062C
:103990001806991FF1CF8695710561050894089561
:1039A000E894BB2766277727CB0197F908952F92D4
:1039B0003F924F925F926F927F928F929F92AF92BF
:1039C000BF92CF92DF92EF92FF920F931F93CF930C
:1039D000DF93CDB7DEB7CA1BDB0B0FB6F894DEBFA3
:1039E0000FBECDBF09942A88398848885F846E84C9
:1039F0007D848C849B84AA84B984C884DF80EE8013
:103A0000FD800C811B81AA81B981CE0FD11D0FB61B
:103A1000F894DEBF0FBECDBFED0108955058BB270F
:103A2000AA270E94261D0C949D1C0E948F1C38F012
:103A30000E94961C20F039F49F3F19F426F40C9450
:103A40008C1C0EF4E095E7FB0C94861CE92F0E9479
:103A5000AE1C58F3BA17620773078407950720F066
:103A600079F4A6F50C94D01C0EF4E0950B2EBA2F29
:103A7000A02D0B01B90190010C01CA01A001112474
:103A8000FF27591B99F0593F50F4503E68F11A1620
:103A9000F040A22F232F342F4427585FF3CF4695B1
:103AA00037952795A795F0405395C9F77EF41F16D3
:103AB000BA0B620B730B840BBAF09150A1F0FF0F9D
:103AC000BB1F661F771F881FC2F70EC0BA0F621F89
:103AD000731F841F48F4879577956795B795F79579
:103AE0009E3F08F0B0CF9395880F08F09927EE0F0E
:103AF0009795879508950E94F51B08F48FEF089518
:103B000097FB072E16F4009407D077FD09D00E948A
:103B1000B61D07FC05D03EF4909581959F4F089502
:103B2000709561957F4F0895A1E21A2EAA1BBB1BC9
:103B3000FD010DC0AA1FBB1FEE1FFF1FA217B30779
:103B4000E407F50720F0A21BB30BE40BF50B661F8F
:103B5000771F881F991F1A9469F760957095809553
:103B600090959B01AC01BD01CF010895AA1BBB1B21
:103B700051E107C0AA1FBB1FA617B70710F0A61B6D
:103B8000B70B881F991F5A95A9F780959095BC018E
:103B9000CD010895EE0FFF1F0590F491E02D0994DB
:103BA0000F931F93CF93DF938230910510F482E03F
:103BB00090E0E091D104F091D20430E020E0B0E058
:103BC000A0E0309799F42115310509F44AC0281B6B
:103BD000390B24303105D8F58A819B816115710537
:103BE00089F1FB0193838283FE0111C040815181E1
:103BF0000281138148175907E0F04817590799F4D3
:103C0000109761F012960C93129713961C933296AC
:103C1000CF01DF91CF911F910F9108950093D104AF
:103C20001093D204F4CF2115310551F042175307F8
:103C300038F0A901DB019A01BD01DF01F801C1CF14
:103C4000EF01F9CF9093D2048093D104CDCFFE0140
:103C5000E20FF31F81939193225031093983288316
:103C6000D7CF2091CF043091D004232B41F4209161
:103C7000FA023091FB023093D0042093CF042091BC
:103C8000F8023091F9022115310541F42DB73EB704
:103C90004091FC025091FD02241B350BE091CF04B2
:103CA000F091D004E217F307A0F42E1B3F0B281766
:103CB000390778F0AC014E5F5F4F2417350748F0A5
:103CC0004E0F5F1F5093D0044093CF048193919384
:103CD0009FCFF0E0E0E09CCFCF93DF930097E9F037
:103CE000FC01329713821282A091D104B091D204C8
:103CF000ED0130E020E01097A1F420813181820FA6
:103D0000931F2091CF043091D0042817390709F070
:103D100061C0F093D004E093CF04DF91CF91089578
:103D2000EA01CE17DF07E8F54A815B819E01411564
:103D30005105B1F7E901FB83EA8349915991C40F19
:103D4000D51FEC17FD0761F4808191810296840FE5
:103D5000951FE90199838883828193819B838A835C
:103D6000F0E0E0E012968D919C9113970097B9F5E1
:103D70002D913C911197CD010296820F931F2091B6
:103D8000CF043091D0042817390739F6309751F510
:103D90001092D2041092D104B093D004A093CF0417
:103DA000BCCFD383C28340815181840F951FC81734
:103DB000D90761F44E5F5F4F88819981480F591F81
:103DC000518340838A819B819383828321153105AE
:103DD00009F0B0CFF093D204E093D1049ECFFD015F
:103DE000DC01C0CF13821282D7CFB0E0A0E0EBEFAE
:103DF000FEE10C94D91C8C01009751F4CB010E9478
:103E0000D01D8C01C801CDB7DEB7E0E10C94F51CE4
:103E1000FC01E60FF71F9C0122503109E217F3075E
:103E200008F49DC0D901CD91DC911197C617D70731
:103E300098F0C530D10530F3CE0104978617970767
:103E400008F3C61BD70B2297C193D1936D937C9334
:103E5000CF010E946C1ED6CF5B01AC1ABD0A4C018B
:103E60008C0E9D1EA091D104B091D204512C412CF6
:103E7000F12CE12C109731F58091CF049091D00472
:103E80008815990509F05CC04616570608F058C019
:103E90008091F8029091F902009741F48DB79EB796
:103EA0004091FC025091FD02841B950BE817F90725
:103EB00008F055C0F093D004E093CF04F90171836A
:103EC0006083A0CF8D919C91119712966C90129760
:103ED00013967C901397A815B90559F56C0142E02B
:103EE000C40ED11CCA14DB0420F1AC014A195B09D1
:103EF000DA011296159780F06282738251834083B3
:103F0000D9016D937C93E114F10471F0D7011396FC
:103F1000FC93EE93129776CF22968C0F9D1FF9019A
:103F200091838083F301EFCFF093D204E093D10427
:103F300069CF4816590608F42C017D01D3019ACFA8
:103F4000CB010E94D01D7C01009749F0AE01B80161
:103F50000E94B71FC8010E946C1E870153CF10E05A
:103F600000E050CF81E090E0F8940C94C71FFB0173
:103F7000DC0102C001900D9241505040D8F70895E5
:103F8000FB01DC0101900D920020E1F7089513E0A0
:103F9000CFE5D3E004C0FE010E94CA1D2196C036C1
:103FA000D107C9F7F894FFCF00000000000000001F
:103FB0000000000000000000000000000000000001
:103FC0000000000000000000000000000000C0E051
:103FD000F0F8FCFCFEFFFCE0000000000000000028
:103FE00000000000000000000000000000000000D1
:103FF00000000000000000000000000000000000C1
:1040000000000000000000000000000000F8F8F8C8
:10401000F8F8F8F8F8F8F8F8F8F0F0E0E0C080C048
:10402000FCFFFFFFFF7F3F7FFFFFFFFFFF00000060
:104030000000000000000000000000000000000080
:104040000000000000000000000000000000000070
:104050000000000000000000000000000000000060
:1040600000000F1F3F7FFFFFFFFFFFFFFFFFE7C7BE
:10407000C7878F9F9FFFFFFFC1C0E0FCFFFFFFFFCF
:10408000FFFCFCFCFCFEFEFEFCFCF8F8F0E0C0C00F
:104090000000000000000000000000000000000020
:1040A0000000000000000000000000000000000010
:1040B00000000000000000000080C0E0F1FBFFFFF6
:1040C000FFFFFF7F1F0F0F87E7FFFFFF1F1F3FF956
:1040D000F8F8F8F8F8F8FDFFFFFFFFFFFFFFFFFF1C
:1040E0007F3F0F07010000000000000000000000FB
:1040F00000000000000000000000000000000000C0
:104100000000000000000000000000F0FEFFFFFFC4
:10411000FFFFFFFFFFFFFFFE7E3F3F0F1FFFFFFF81
:10412000FCF0E0F1FFFFFFFFFFFCF00101010101E6
:10413000010101000000000000000000000000007C
:10414000000000000000000000000000000000006F
:10415000000000000000000000000000000000035C
:104160000303030303030301010101000000000036
:104170000000030F1F3F7F7FFFFFFFFF7F7F1F03B5
:10418000000000000000000000000000000000002F
:10419000000000000000000000000000000000001F
:1041A0000000D3048000000000008206E2050F0634
:1041B000CF0640061E06320600000000D40AE205C3
:1041C0002E0E2D0ED8076F08790D510D6D0D610D56
:1041D000800D6F089A08C707180DDF0C9A0C7D0C2C
:1041E000050CA60B0D0A0056313A2000565F4443D9
:1041F0000056726D7300214578632E2074656E73CE
:10420000696F6E210056323A200056333A2000562C
:04421000343A20001C
:107E0000112484B714BE81FFF0D085E080938100F7
:107E100082E08093C00088E18093C10086E0809377
:107E2000C20080E18093C4008EE0C9D0259A86E02C
:107E300020E33CEF91E0309385002093840096BBD3
:107E4000B09BFECF1D9AA8958150A9F7CC24DD24C4
:107E500088248394B5E0AB2EA1E19A2EF3E0BF2EE7
:107E6000A2D0813461F49FD0082FAFD0023811F036
:107E7000013811F484E001C083E08DD089C08234E0
:107E800011F484E103C0853419F485E0A6D080C0E4
:107E9000853579F488D0E82EFF2485D0082F10E0AE
:107EA000102F00270E291F29000F111F8ED06801E7
:107EB0006FC0863521F484E090D080E0DECF843638
:107EC00009F040C070D06FD0082F6DD080E0C81688
:107ED00080E7D80618F4F601B7BEE895C0E0D1E017
:107EE00062D089930C17E1F7F0E0CF16F0E7DF06D8
:107EF00018F0F601B7BEE89568D007B600FCFDCFD4
:107F0000A601A0E0B1E02C9130E011968C91119780
:107F100090E0982F8827822B932B1296FA010C0160
:107F200087BEE89511244E5F5F4FF1E0A038BF0790
:107F300051F7F601A7BEE89507B600FCFDCF97BE46
:107F4000E89526C08437B1F42ED02DD0F82E2BD052
:107F50003CD0F601EF2C8F010F5F1F4F84911BD097
:107F6000EA94F801C1F70894C11CD11CFA94CF0C13
:107F7000D11C0EC0853739F428D08EE10CD085E9AC
:107F80000AD08FE07ACF813511F488E018D01DD067
:107F900080E101D065CF982F8091C00085FFFCCF94
:107FA0009093C60008958091C00087FFFCCF809118
:107FB000C00084FD01C0A8958091C6000895E0E648
:107FC000F0E098E1908380830895EDDF803219F02E
:107FD00088E0F5DFFFCF84E1DECF1F93182FE3DFCA
:107FE0001150E9F7F2DF1F91089580E0E8DFEE27F6
:047FF000FF270994CA
:027FFE00040479
:00000001FF
