:020000040000FA
:100000000000952920308316850083128501181081
:100010009814181198151816831246084504031DE4
:1000200034288312CB0A0319CC0A4B088312A00090
:1000300083124C088312A10020080B3A031D2728C5
:100040002108003A031D27288312CB01CC0183121B
:10005000A0018312851E2E288312A00A8312200875
:100060008312C500C6010C28831247088312A00022
:10007000831248088312A10020080A3A031DB528FC
:100080002108003A031DB5288312C701C801831255
:10009000C301C40183124308FD004408FE0002307E
:1000A000FF000030C2228312A1007F08A000A03E02
:1000B000A00021080318210F003EA1002008831290
:1000C0008400831383122118831746308312800023
:1000D000840A003080008312C30A0319C40A43084B
:1000E0008312A000831244088312A100803E803E48
:1000F000031D7C280A302002031C4A281F3083126B
:10010000850083124D08FF004E087A236330FF00FC
:100110000030312283124D08FF004E087A231F3031
:100120008312850083124D08FF004E087A23633046
:10013000FF000030312283124D08FF004E087A2361
:100140001F308312850083124D08FF004E087A236A
:100150006330FF000030312283124D08FF004E084B
:100160007A231F308312850078298312C901CA01BE
:100170008312C301C401831247088312A0008312B3
:1001800048088312A100A00A0319A10A8312430898
:100190008312A200831244088312A300803EA400AD
:1001A0002108803E2402031DD728200822020318BC
:1001B000112983124308FD004408FE000230FF00AD
:1001C0000030C2228312A1007F08A000A03EA00040
:1001D00021080318210F003EA1002008831284008B
:1001E0008313831221188317831200088312A2003D
:1001F0008312840A00088312A300220883124B068C
:10020000031D0C298312230883124C06031D0C299D
:1002100001308312C900CA018312C30A0319C40A38
:10022000BB28831249088312A00083124A08831254
:10023000A1002008013A031D25292108003A031DC9
:1002400025298312CB0A0319CC0A83124B08831287
:10025000A00083124C088312A10020080A3A031D53
:1002600038292108003A031D38298312CB01CC011B
:10027000831249088312A00083124A088312A10046
:100280002008013A031D48292108003A0319B5281E
:100290008312C901CA0183124B08FF004C083122A6
:1002A00083124708FD004808FE000230FF000030BE
:1002B000C2228312A1007F08A000A03EA000210856
:1002C0000318210F003EA10020088312840083132D
:1002D00083122118831783124B0883128000840A2B
:1002E00083124C08831280008312C70A0319C80ABC
:1002F000831245088312A000831246088312A100CE
:100300002008013A031D0C282108003A031D0C287F
:10031000A0018312851E8E298312A00A8312200851
:100320008312C500C60178290800D030FE000330D2
:10033000FF008030000000005923000000008316F9
:100340000000B5007F08B400D230B6000330B7001B
:10035000831600003408B8003508B900FF30B40730
:10036000031CB5033908380403192D2A0430360755
:10037000B800B901B90D3708B9073808FE003908C7
:10038000FF008030000000005923000000008316A9
:100390000000BB007F08BA003608FE003708FF00E7
:1003A0008030000000005923000000008316000088
:1003B000BD00B9007F08B800BC0002303607B800A5
:1003C000B901B90D3708B9073808FE003908FF0030
:1003D0008030000000005923000000008316000058
:1003E000B900BF007F08BE00B800831600003A08BD
:1003F000BE003B08BF00FF30BA07031CBB033F0829
:100400003E040319262A3C08FE003D08FF00803008
:100410000000000046230000000083160000BE001C
:1004200038088312031384008313831600003918DD
:1004300083173E0883120313800083160000BC0A52
:100440000319BD0AB80A0319B90AF529063083163B
:100450000000B6070318B70AA82900000000022808
:1004600008008312A5007F08A6002508A70026041F
:100470000319942A2608013A031D422A2708003A44
:100480000319972A83122608023A031D4B2A2708CC
:10049000003A03199B2A83122608033A031D542AA3
:1004A0002708003A03199F2A83122608043A031DDD
:1004B0005D2A2708003A0319A32A83122608053A61
:1004C000031D662A2708003A0319A72A8312260863
:1004D000063A031D6F2A2708003A0319AB2A831234
:1004E0002608073A031D782A2708003A0319AF2A7D
:1004F00083122608083A031D812A2708003A0319A7
:10050000B32A83122608093A031D8A2A2708003ACB
:100510000319B72A83122608633A031D932A270872
:10052000003A0319BB2ABF2A83128501C12A013070
:1005300083128500C12A023083128500C12A03304C
:1005400083128500C12A043083128500C12A053038
:1005500083128500C12A063083128500C12A073024
:1005600083128500C12A103083128500C12A113000
:1005700083128500C12A123083128500C12A83129A
:100580008501080083120000B1007F08831200007B
:10059000B40083120000B0007E08B3007D0883120F
:1005A0000000B60083120000B20031088312000080
:1005B000B50083120000330883120000B7008312D5
:1005C0000000340883120000B000831200003608D7
:1005D00083120000B100FF00300800000000A523D6
:1005E0000000000083120000B1007F08B0008312F9
:1005F0000000B80083120000310883120000B90027
:1006000083120000B000831200003408831200003F
:10061000B10083120000370883120000B200FF000F
:10062000310800000000A523000000007F088312AD
:100630000000B10083120000350883120000B200F0
:1006400083120000360883120000B300FF00320856
:1006500000000000A523000000007F0883120000B6
:10066000B200B1073108B007300883120000B900AA
:10067000380883120000B00083120000390883128A
:100680000000B1003008FF0031080800003A0319EB
:100690004D2B803A0319542B00347E0884008313B9
:1006A0007F188317000808007F088A007E088200F0
:1006B0000800003A0319612B803A03196B2BFF01E4
:1006C00000347E08840083137F1883170008FF001E
:1006D000840A00080800000000005423FD00FE0FFB
:1006E000FF03FF0A000000005423FC007D08FF0008
:1006F0007C0808008312A9007F08A800AA01AB01AA
:10070000831229082B02031D872B28082A020318AD
:10071000A42BFB308312AC000430AD00FF308312F9
:100720002C07AE00FF30AF002D0803182D0FAF07C8
:100730002E08AC002F08AD002F082E04031D8E2BB1
:10074000AA0A0319AB0A802B080083120000BA0022
:100750007F08BB00BC01BD01BE0108308312000050
:100760003E020318CA2B0310BC0DBD0DBA1FC12BCE
:100770000030C0003B08BF00BC0740080318400F12
:10078000BD07831200003A08BF0003103F0DBA00F6
:10079000BE0AAD2B831200003C08FF003D08080094
:1007A00006340034F6340334453400340234003463
:1007B000F83403344734003402340034FA34033458
:1007C0004934003402340034FC3403344B340034F4
:1007D00002340034FE3403344D3400340234003427
:1007E000003404344F340034013400340034003415
:1007F00000340034003400340034003496340034C3
:020800000034C2
:00000001FF
